S01000004F70676176655F322E7372656321
S11300000C9434000C943E000C943E000C943E007E
S11300100C943E000C943E000C943E000C943E0064
S11300200C943E000C943E000C943E000C943E0054
S11300300C943E000C943E000C943E000C943E0044
S11300400C943E000C943E000C943E000C943E0034
S11300500C943E000C943E000C943E000C943E0024
S11300600C943E000C943E0011241FBECFEFD8E048
S1130070DEBFCDBF0E9440000C9451000C940000E0
S113008017B88FEF84B915B8309B03C02C9A2C98FD
S113009001C02C98319B03C02B9A2B98F5CF2B9839
S10900A0F3CFF894FFCF3A
S9030000FC
