S01000004F70676176655F312E7372656322
S11300000C9434000C943E000C943E000C943E007E
S11300100C943E000C943E000C943E000C943E0064
S11300200C943E000C943E000C943E000C943E0054
S11300300C943E000C943E000C943E000C943E0044
S11300400C943E000C943E000C943E000C943E0034
S11300500C943E000C943E000C943E000C943E0024
S11300600C943E000C943E0011241FBECFEFD8E048
S1130070DEBFCDBF0E9440000C9459000C940000D8
S11300808FEF84B985B92FE789EA93E02150804046
S11300909040E1F700C0000085B1809585B92FE755
S11300A089EA93E0215080409040E1F700C00000CD
S10900B0EACFF894FFCF33
S9030000FC
